{"abi":[{"type":"constructor","inputs":[{"name":"_token","type":"address","internalType":"address"},{"name":"owner_","type":"address","internalType":"address"}],"stateMutability":"nonpayable"},{"type":"function","name":"TOKEN","inputs":[],"outputs":[{"name":"","type":"address","internalType":"contract IERC20"}],"stateMutability":"view"},{"type":"function","name":"addVestingSchedule","inputs":[{"name":"_beneficiary","type":"address","internalType":"address"},{"name":"_start","type":"uint256","internalType":"uint256"},{"name":"_duration","type":"uint256","internalType":"uint256"},{"name":"_amount","type":"uint256","internalType":"uint256"}],"outputs":[],"stateMutability":"nonpayable"},{"type":"function","name":"owner","inputs":[],"outputs":[{"name":"","type":"address","internalType":"address"}],"stateMutability":"view"},{"type":"function","name":"releasableAmount","inputs":[{"name":"beneficiary","type":"address","internalType":"address"}],"outputs":[{"name":"","type":"uint256","internalType":"uint256"}],"stateMutability":"view"},{"type":"function","name":"releaseFor","inputs":[{"name":"beneficiary","type":"address","internalType":"address"}],"outputs":[],"stateMutability":"nonpayable"},{"type":"function","name":"renounceOwnership","inputs":[],"outputs":[],"stateMutability":"nonpayable"},{"type":"function","name":"transferOwnership","inputs":[{"name":"newOwner","type":"address","internalType":"address"}],"outputs":[],"stateMutability":"nonpayable"},{"type":"function","name":"vestingSchedules","inputs":[{"name":"","type":"address","internalType":"address"}],"outputs":[{"name":"vestingStart","type":"uint256","internalType":"uint256"},{"name":"vestingDuration","type":"uint256","internalType":"uint256"},{"name":"totalVestingAmount","type":"uint256","internalType":"uint256"},{"name":"releasedAmount","type":"uint256","internalType":"uint256"}],"stateMutability":"view"},{"type":"event","name":"OwnershipTransferred","inputs":[{"name":"previousOwner","type":"address","indexed":true,"internalType":"address"},{"name":"newOwner","type":"address","indexed":true,"internalType":"address"}],"anonymous":false},{"type":"event","name":"TokensReleased","inputs":[{"name":"beneficiary","type":"address","indexed":true,"internalType":"address"},{"name":"amount","type":"uint256","indexed":false,"internalType":"uint256"}],"anonymous":false},{"type":"event","name":"VestingAdded","inputs":[{"name":"beneficiary","type":"address","indexed":true,"internalType":"address"},{"name":"totalAmount","type":"uint256","indexed":false,"internalType":"uint256"},{"name":"start","type":"uint256","indexed":false,"internalType":"uint256"},{"name":"duration","type":"uint256","indexed":false,"internalType":"uint256"}],"anonymous":false},{"type":"error","name":"AddressEmptyCode","inputs":[{"name":"target","type":"address","internalType":"address"}]},{"type":"error","name":"FailedCall","inputs":[]},{"type":"error","name":"InsufficientBalance","inputs":[{"name":"balance","type":"uint256","internalType":"uint256"},{"name":"needed","type":"uint256","internalType":"uint256"}]},{"type":"error","name":"OwnableInvalidOwner","inputs":[{"name":"owner","type":"address","internalType":"address"}]},{"type":"error","name":"OwnableUnauthorizedAccount","inputs":[{"name":"account","type":"address","internalType":"address"}]},{"type":"error","name":"ReentrancyGuardReentrantCall","inputs":[]},{"type":"error","name":"SafeERC20FailedOperation","inputs":[{"name":"token","type":"address","internalType":"address"}]}],"bytecode":{"object":"0x60a060405234801561001057600080fd5b50604051610c18380380610c1883398101604081905261002f91610144565b6001600055806001600160a01b03811661006457604051631e4fbdf760e01b8152600060048201526024015b60405180910390fd5b61006d816100d6565b506001600160a01b0382166100c45760405162461bcd60e51b815260206004820152601c60248201527f546f6b656e20616464726573732063616e6e6f74206265207a65726f00000000604482015260640161005b565b506001600160a01b0316608052610177565b600180546001600160a01b038381166001600160a01b0319831681179093556040519116919082907f8be0079c531659141344cd1fd0a4f28419497f9722a3daafe3b4186f6b6457e090600090a35050565b80516001600160a01b038116811461013f57600080fd5b919050565b6000806040838503121561015757600080fd5b61016083610128565b915061016e60208401610128565b90509250929050565b608051610a806101986000396000818160d501526105bb0152610a806000f3fe608060405234801561001057600080fd5b50600436106100885760003560e01c80638da5cb5b1161005b5780638da5cb5b1461010f578063ec0904f714610120578063f2fde38b14610133578063fdb20ccb1461014657600080fd5b80631726cbc81461008d57806324ef8c1b146100b3578063715018a6146100c857806382bfefc8146100d0575b600080fd5b6100a061009b366004610930565b61019d565b6040519081526020015b60405180910390f35b6100c66100c136600461094b565b610226565b005b6100c6610455565b6100f77f000000000000000000000000000000000000000000000000000000000000000081565b6040516001600160a01b0390911681526020016100aa565b6001546001600160a01b03166100f7565b6100c661012e366004610930565b610469565b6100c6610141366004610930565b610634565b61017d610154366004610930565b600260208190526000918252604090912080546001820154928201546003909201549092919084565b6040805194855260208501939093529183015260608201526080016100aa565b6001600160a01b038116600090815260026020526040812080544210156101c75750600092915050565b80546000906101d6904261099a565b9050600082600101548284600201546101ef91906109ad565b6101f991906109c4565b9050826002015481111561020e575060028201545b600383015461021d908261099a565b95945050505050565b61022e61066f565b6001600160a01b0384166102985760405162461bcd60e51b815260206004820152602660248201527f42656e65666963696172792063616e6e6f7420626520746865207a65726f206160448201526564647265737360d01b60648201526084015b60405180910390fd5b600081116102e85760405162461bcd60e51b815260206004820152601f60248201527f56657374696e6720616d6f756e74206d75737420626520706f73697469766500604482015260640161028f565b600082116103425760405162461bcd60e51b815260206004820152602160248201527f56657374696e67206475726174696f6e206d75737420626520706f73697469766044820152606560f81b606482015260840161028f565b6001600160a01b038416600090815260026020526040902054156103b95760405162461bcd60e51b815260206004820152602860248201527f56657374696e6720616c72656164792073657420666f7220746869732062656e604482015267656669636961727960c01b606482015260840161028f565b604080516080810182528481526020808201858152828401858152600060608086018281526001600160a01b038c168084526002808852938990209751885594516001880155925191860191909155905160039094019390935583518581529182018790529281018590527fa95063d8afe9473976f0965d552dce67e1b02d154b4fb06ff7e518f8648e93c7910160405180910390a250505050565b61045d61066f565b610467600061069c565b565b6104716106ee565b6001600160a01b038116600090815260026020526040812080549091036104e65760405162461bcd60e51b8152602060048201526024808201527f56657374696e67206e6f742073657420666f7220746869732062656e656669636044820152636961727960e01b606482015260840161028f565b80544210156105375760405162461bcd60e51b815260206004820152601b60248201527f56657374696e6720686173206e6f742073746172746564207965740000000000604482015260640161028f565b60006105428361019d565b9050600081116105945760405162461bcd60e51b815260206004820152601d60248201527f4e6f20746f6b656e73206172652064756520666f722072656c65617365000000604482015260640161028f565b808260030160008282546105a891906109e6565b909155506105e290506001600160a01b037f0000000000000000000000000000000000000000000000000000000000000000168483610718565b826001600160a01b03167fc7798891864187665ac6dd119286e44ec13f014527aeeb2b8eb3fd413df931798260405161061d91815260200190565b60405180910390a250506106316001600055565b50565b61063c61066f565b6001600160a01b03811661066657604051631e4fbdf760e01b81526000600482015260240161028f565b6106318161069c565b6001546001600160a01b031633146104675760405163118cdaa760e01b815233600482015260240161028f565b600180546001600160a01b038381166001600160a01b0319831681179093556040519116919082907f8be0079c531659141344cd1fd0a4f28419497f9722a3daafe3b4186f6b6457e090600090a35050565b60026000540361071157604051633ee5aeb560e01b815260040160405180910390fd5b6002600055565b604080516001600160a01b038416602482015260448082018490528251808303909101815260649091019091526020810180516001600160e01b031663a9059cbb60e01b17905261076a90849061076f565b505050565b60006107846001600160a01b038416836107d2565b905080516000141580156107a95750808060200190518101906107a791906109f9565b155b1561076a57604051635274afe760e01b81526001600160a01b038416600482015260240161028f565b60606107e0838360006107e9565b90505b92915050565b6060814710156108155760405163cf47918160e01b81524760048201526024810183905260440161028f565b600080856001600160a01b031684866040516108319190610a1b565b60006040518083038185875af1925050503d806000811461086e576040519150601f19603f3d011682016040523d82523d6000602084013e610873565b606091505b509150915061088386838361088f565b925050505b9392505050565b6060826108a45761089f826108eb565b610888565b81511580156108bb57506001600160a01b0384163b155b156108e457604051639996b31560e01b81526001600160a01b038516600482015260240161028f565b5080610888565b8051156108fb5780518082602001fd5b60405163d6bda27560e01b815260040160405180910390fd5b80356001600160a01b038116811461092b57600080fd5b919050565b60006020828403121561094257600080fd5b6107e082610914565b6000806000806080858703121561096157600080fd5b61096a85610914565b966020860135965060408601359560600135945092505050565b634e487b7160e01b600052601160045260246000fd5b818103818111156107e3576107e3610984565b80820281158282048414176107e3576107e3610984565b6000826109e157634e487b7160e01b600052601260045260246000fd5b500490565b808201808211156107e3576107e3610984565b600060208284031215610a0b57600080fd5b8151801515811461088857600080fd5b6000825160005b81811015610a3c5760208186018101518583015201610a22565b50600092019182525091905056fea26469706673582212208d9b067973f6c2222810ce2e5fe804e181dcd462d5a8c6a83a14ebbae6398f1264736f6c63430008180033","linkReferences":{}},"methodIdentifiers":{"TOKEN()":"82bfefc8","addVestingSchedule(address,uint256,uint256,uint256)":"24ef8c1b","owner()":"8da5cb5b","releasableAmount(address)":"1726cbc8","releaseFor(address)":"ec0904f7","renounceOwnership()":"715018a6","transferOwnership(address)":"f2fde38b","vestingSchedules(address)":"fdb20ccb"},"id":46}