{"abi":[{"type":"constructor","inputs":[{"name":"owner_","type":"address","internalType":"address"}],"stateMutability":"nonpayable"},{"type":"function","name":"campaign","inputs":[],"outputs":[{"name":"","type":"address","internalType":"contract ICampaign"}],"stateMutability":"view"},{"type":"function","name":"claimFunds","inputs":[],"outputs":[],"stateMutability":"nonpayable"},{"type":"function","name":"claimTokens","inputs":[],"outputs":[],"stateMutability":"nonpayable"},{"type":"function","name":"claimed","inputs":[{"name":"","type":"address","internalType":"address"}],"outputs":[{"name":"","type":"bool","internalType":"bool"}],"stateMutability":"view"},{"type":"function","name":"contribute","inputs":[{"name":"amount","type":"uint256","internalType":"uint256"}],"outputs":[],"stateMutability":"nonpayable"},{"type":"function","name":"contributions","inputs":[{"name":"","type":"address","internalType":"address"}],"outputs":[{"name":"","type":"uint256","internalType":"uint256"}],"stateMutability":"view"},{"type":"function","name":"description","inputs":[],"outputs":[{"name":"","type":"string","internalType":"string"}],"stateMutability":"view"},{"type":"function","name":"failed","inputs":[],"outputs":[{"name":"","type":"bool","internalType":"bool"}],"stateMutability":"view"},{"type":"function","name":"finalize","inputs":[],"outputs":[],"stateMutability":"nonpayable"},{"type":"function","name":"finalized","inputs":[],"outputs":[{"name":"","type":"bool","internalType":"bool"}],"stateMutability":"view"},{"type":"function","name":"finalizedTimestamp","inputs":[],"outputs":[{"name":"","type":"uint256","internalType":"uint256"}],"stateMutability":"view"},{"type":"function","name":"getRequiredAmountsForLiquidity","inputs":[{"name":"raiseTokenAmount","type":"uint256","internalType":"uint256"}],"outputs":[{"name":"requiredSaleTokens","type":"uint256","internalType":"uint256"},{"name":"","type":"uint256","internalType":"uint256"}],"stateMutability":"view"},{"type":"function","name":"initSwapPair","inputs":[{"name":"poolFee","type":"uint24","internalType":"uint24"},{"name":"tickLower","type":"int24","internalType":"int24"},{"name":"tickUpper","type":"int24","internalType":"int24"}],"outputs":[],"stateMutability":"nonpayable"},{"type":"function","name":"initialize","inputs":[{"name":"_saleToken","type":"address","internalType":"address"},{"name":"_raiseToken","type":"address","internalType":"address"},{"name":"_projectName","type":"string","internalType":"string"},{"name":"_description","type":"string","internalType":"string"},{"name":"_websiteLink","type":"string","internalType":"string"},{"name":"_campaign","type":"address","internalType":"contract ICampaign"},{"name":"_vestingStartDelta","type":"uint256","internalType":"uint256"},{"name":"_vestingDuration","type":"uint256","internalType":"uint256"},{"name":"_positionManager","type":"address","internalType":"address"},{"name":"_vesting","type":"address","internalType":"contract IVesting"}],"outputs":[],"stateMutability":"nonpayable"},{"type":"function","name":"owner","inputs":[],"outputs":[{"name":"","type":"address","internalType":"address"}],"stateMutability":"view"},{"type":"function","name":"positionManager","inputs":[],"outputs":[{"name":"","type":"address","internalType":"contract INonfungiblePositionManager"}],"stateMutability":"view"},{"type":"function","name":"projectName","inputs":[],"outputs":[{"name":"","type":"string","internalType":"string"}],"stateMutability":"view"},{"type":"function","name":"purchasedTokens","inputs":[{"name":"","type":"address","internalType":"address"}],"outputs":[{"name":"","type":"uint256","internalType":"uint256"}],"stateMutability":"view"},{"type":"function","name":"raiseToken","inputs":[],"outputs":[{"name":"","type":"address","internalType":"contract IERC20"}],"stateMutability":"view"},{"type":"function","name":"raisedAmount","inputs":[],"outputs":[{"name":"","type":"uint256","internalType":"uint256"}],"stateMutability":"view"},{"type":"function","name":"renounceOwnership","inputs":[],"outputs":[],"stateMutability":"nonpayable"},{"type":"function","name":"saleToken","inputs":[],"outputs":[{"name":"","type":"address","internalType":"contract IERC20"}],"stateMutability":"view"},{"type":"function","name":"setFailed","inputs":[],"outputs":[],"stateMutability":"nonpayable"},{"type":"function","name":"soldAmount","inputs":[],"outputs":[{"name":"","type":"uint256","internalType":"uint256"}],"stateMutability":"view"},{"type":"function","name":"swapPairCreated","inputs":[],"outputs":[{"name":"","type":"bool","internalType":"bool"}],"stateMutability":"view"},{"type":"function","name":"transferOwnership","inputs":[{"name":"newOwner","type":"address","internalType":"address"}],"outputs":[],"stateMutability":"nonpayable"},{"type":"function","name":"vesting","inputs":[],"outputs":[{"name":"","type":"address","internalType":"contract IVesting"}],"stateMutability":"view"},{"type":"function","name":"vestingDuration","inputs":[],"outputs":[{"name":"","type":"uint256","internalType":"uint256"}],"stateMutability":"view"},{"type":"function","name":"vestingStartDelta","inputs":[],"outputs":[{"name":"","type":"uint256","internalType":"uint256"}],"stateMutability":"view"},{"type":"function","name":"websiteLink","inputs":[],"outputs":[{"name":"","type":"string","internalType":"string"}],"stateMutability":"view"},{"type":"event","name":"Claimed","inputs":[{"name":"claimer","type":"address","indexed":true,"internalType":"address"},{"name":"amount","type":"uint256","indexed":false,"internalType":"uint256"}],"anonymous":false},{"type":"event","name":"Contribution","inputs":[{"name":"contributor","type":"address","indexed":true,"internalType":"address"},{"name":"amount","type":"uint256","indexed":false,"internalType":"uint256"}],"anonymous":false},{"type":"event","name":"Failed","inputs":[],"anonymous":false},{"type":"event","name":"Finalized","inputs":[],"anonymous":false},{"type":"event","name":"FundsClaimed","inputs":[{"name":"claimer","type":"address","indexed":true,"internalType":"address"},{"name":"amount","type":"uint256","indexed":false,"internalType":"uint256"}],"anonymous":false},{"type":"event","name":"Initialized","inputs":[{"name":"version","type":"uint64","indexed":false,"internalType":"uint64"}],"anonymous":false},{"type":"event","name":"OwnershipTransferred","inputs":[{"name":"previousOwner","type":"address","indexed":true,"internalType":"address"},{"name":"newOwner","type":"address","indexed":true,"internalType":"address"}],"anonymous":false},{"type":"event","name":"SwapPairInitialized","inputs":[{"name":"tokenId","type":"uint256","indexed":false,"internalType":"uint256"}],"anonymous":false},{"type":"error","name":"AddressEmptyCode","inputs":[{"name":"target","type":"address","internalType":"address"}]},{"type":"error","name":"FailedCall","inputs":[]},{"type":"error","name":"InsufficientBalance","inputs":[{"name":"balance","type":"uint256","internalType":"uint256"},{"name":"needed","type":"uint256","internalType":"uint256"}]},{"type":"error","name":"InvalidInitialization","inputs":[]},{"type":"error","name":"NotInitializing","inputs":[]},{"type":"error","name":"OwnableInvalidOwner","inputs":[{"name":"owner","type":"address","internalType":"address"}]},{"type":"error","name":"OwnableUnauthorizedAccount","inputs":[{"name":"account","type":"address","internalType":"address"}]},{"type":"error","name":"ReentrancyGuardReentrantCall","inputs":[]},{"type":"error","name":"SafeERC20FailedOperation","inputs":[{"name":"token","type":"address","internalType":"address"}]}],"bytecode":{"object":"0x60806040523480156200001157600080fd5b50604051620022f7380380620022f78339810160408190526200003491620000cb565b806001600160a01b0381166200006457604051631e4fbdf760e01b81526000600482015260240160405180910390fd5b6200006f816200007b565b505060018055620000fd565b600080546001600160a01b038381166001600160a01b0319831681178455604051919092169283917f8be0079c531659141344cd1fd0a4f28419497f9722a3daafe3b4186f6b6457e09190a35050565b600060208284031215620000de57600080fd5b81516001600160a01b0381168114620000f657600080fd5b9392505050565b6121ea806200010d6000396000f3fe608060405234801561001057600080fd5b50600436106101da5760003560e01c80639a33e30011610104578063c59ee1dc116100a2578063e985e36711610071578063e985e367146103cb578063f05966de146103e3578063f2fde38b146103f6578063fa1a5f591461040957600080fd5b8063c59ee1dc1461036e578063c884ef8314610377578063df7dbd791461039a578063e77d1a1f146103c257600080fd5b8063ac307773116100de578063ac30777314610334578063b3f05b971461033c578063ba414fa614610349578063c1cbbca71461035b57600080fd5b80639a33e300146103065780639b13e8e91461030e578063a5e14dac1461031757600080fd5b80634bb278f31161017c578063791b98bc1161014b578063791b98bc146102bc578063811e539c146102cf5780638da5cb5b146102e25780639491aa1f146102f357600080fd5b80634bb278f3146102915780634da60aa514610299578063715018a6146102ac5780637284e416146102b457600080fd5b806342e94c90116101b857806342e94c901461021e57806344c63eec1461023e57806348c54b9d146102695780634bae6f3f1461027157600080fd5b8063079219d5146101df578063146901db146101fd5780631514617e14610207575b600080fd5b6101e7610412565b6040516101f49190611bbd565b60405180910390f35b6102056104a0565b005b61021060065481565b6040519081526020016101f4565b61021061022c366004611c15565b60106020526000908152604090205481565b600e54610251906001600160a01b031681565b6040516001600160a01b0390911681526020016101f4565b610205610658565b61021061027f366004611c15565b60116020526000908152604090205481565b610205610875565b600c54610251906001600160a01b031681565b610205610acc565b6101e7610ade565b600f54610251906001600160a01b031681565b600d54610251906001600160a01b031681565b6000546001600160a01b0316610251565b610205610301366004611c44565b610aeb565b6101e7610fb0565b610210600a5481565b600b546103249060ff1681565b60405190151581526020016101f4565b610205610fbd565b6009546103249060ff1681565b60095461032490610100900460ff1681565b610205610369366004611c91565b6110d2565b61021060075481565b610324610385366004611c15565b60126020526000908152604090205460ff1681565b6103ad6103a8366004611c91565b611226565b604080519283526020830191909152016101f4565b61021060055481565b600b546102519061010090046001600160a01b031681565b6102056103f1366004611d4d565b6112e8565b610205610404366004611c15565b6116b2565b61021060085481565b6004805461041f90611e3e565b80601f016020809104026020016040519081016040528092919081815260200182805461044b90611e3e565b80156104985780601f1061046d57610100808354040283529160200191610498565b820191906000526020600020905b81548152906001019060200180831161047b57829003601f168201915b505050505081565b6104a86116ed565b6104b061171a565b60095460ff16156105085760405162461bcd60e51b815260206004820152601d60248201527f46756e6472616973696e6720616c72656164792066696e616c697a656400000060448201526064015b60405180910390fd5b600d60009054906101000a90046001600160a01b03166001600160a01b031663a8d31c786040518163ffffffff1660e01b8152600401600060405180830381600087803b15801561055857600080fd5b505af115801561056c573d6000803e3d6000fd5b50506009805461010061ff00199091168117909155600b546040516370a0823160e01b8152306004820152600094509190046001600160a01b031691506370a0823190602401602060405180830381865afa1580156105cf573d6000803e3d6000fd5b505050506040513d601f19601f820116820180604052508101906105f39190611e78565b6040519091507f625a40e68d9554793bf647bf32e4885e7f15bd1bfac262906cc7d26f376f20a290600090a161064c6106346000546001600160a01b031690565b600b5461010090046001600160a01b03169083611744565b5061065660018055565b565b61066061171a565b60095460ff166106ae5760405162461bcd60e51b8152602060048201526019602482015278119d5b991c985a5cda5b99c81b9bdd08199a5b985b1a5e9959603a1b60448201526064016104ff565b600b5460ff166106f85760405162461bcd60e51b815260206004820152601560248201527414ddd85c081c185a5c881b9bdd0818dc99585d1959605a1b60448201526064016104ff565b3360009081526012602052604090205460ff16156107515760405162461bcd60e51b8152602060048201526016602482015275151bdad95b9cc8185b1c9958591e4818db185a5b595960521b60448201526064016104ff565b336000908152601260209081526040808320805460ff1916600117905560119091529020546006541561081a57600e54600554600a546001600160a01b03909216916324ef8c1b9133916107a59190611ea7565b6006546040516001600160e01b031960e086901b1681526001600160a01b0390931660048401526024830191909152604482015260648101849052608401600060405180830381600087803b1580156107fd57600080fd5b505af1158015610811573d6000803e3d6000fd5b50505050610836565b600b546108369061010090046001600160a01b03163383611744565b60405181815233907fd8138f8a3f377c5259ca548e70e4c2de94f129f5a11036a15b69513cba2b426a9060200160405180910390a25061065660018055565b61087d6116ed565b61088561171a565b60095460ff16156108cc5760405162461bcd60e51b8152602060048201526011602482015270105b1c9958591e48199a5b985b1a5e9959607a1b60448201526064016104ff565b600954610100900460ff16156109195760405162461bcd60e51b8152602060048201526012602482015271119d5b991c985a5cda5b99c819985a5b195960721b60448201526064016104ff565b6009805460ff19166001179055600d546040805163d54dff2d60e01b815290516001600160a01b039092169163d54dff2d9160048082019260009290919082900301818387803b15801561096c57600080fd5b505af1158015610980573d6000803e3d6000fd5b505050506109af6109996000546001600160a01b031690565b600754600c546001600160a01b03169190611744565b600b546040516370a0823160e01b815230600482015260009161010090046001600160a01b0316906370a0823190602401602060405180830381865afa1580156109fd573d6000803e3d6000fd5b505050506040513d601f19601f82011682018060405250810190610a219190611e78565b9050600854811115610a6757610a67610a426000546001600160a01b031690565b600854610a4f9084611eba565b600b5461010090046001600160a01b03169190611744565b60065415610a9557600e54600854600b54610a95926001600160a01b03610100909204821692911690611744565b42600a556040517f6823b073d48d6e3a7d385eeb601452d680e74bb46afe3255a7d778f3a9b1768190600090a15061065660018055565b610ad46116ed565b61065660006117a3565b6003805461041f90611e3e565b610af36116ed565b610afb61171a565b60095460ff16610b495760405162461bcd60e51b8152602060048201526019602482015278119d5b991c985a5cda5b99c81b9bdd08199a5b985b1a5e9959603a1b60448201526064016104ff565b600b5460ff1615610b9c5760405162461bcd60e51b815260206004820152601960248201527f53776170207061697220616c726561647920637265617465640000000000000060448201526064016104ff565b600b805460ff19166001179055600d5460408051633d8d8ef360e11b815290516000926001600160a01b031691637b1b1de69160048083019260209291908290030181865afa158015610bf3573d6000803e3d6000fd5b505050506040513d601f19601f82011682018060405250810190610c179190611e78565b905060008111610c395760405162461bcd60e51b81526004016104ff90611ecd565b600b546040516370a0823160e01b815230600482015260009161010090046001600160a01b0316906370a0823190602401602060405180830381865afa158015610c87573d6000803e3d6000fd5b505050506040513d601f19601f82011682018060405250810190610cab9190611e78565b600c546040516370a0823160e01b81523060048201529192506000916001600160a01b03909116906370a0823190602401602060405180830381865afa158015610cf9573d6000803e3d6000fd5b505050506040513d601f19601f82011682018060405250810190610d1d9190611e78565b6006549091508290600003610da4576008548311610d945760405162461bcd60e51b815260206004820152602e60248201527f4e6f7420656e6f7567682073616c6520746f6b656e7320746f2063726561746560448201526d103a34329039bbb0b8103830b4b960911b60648201526084016104ff565b600854610da19084611eba565b90505b600080610db084611226565b9150915082821115610e195760405162461bcd60e51b815260206004820152602c60248201527f4e6f7420656e6f756768206c697175696469747920746f20637265617465207460448201526b34329039bbb0b8103830b4b960a11b60648201526084016104ff565b600f54600b54610e3b916001600160a01b0361010090920482169116846117f3565b600f54600c54610e58916001600160a01b039182169116836117f3565b6040805161016081018252600b546001600160a01b036101009182900481168352600c5416602083015262ffffff8c169282019290925260028a810b606083015289900b608082015260a0810184905260c08101839052600060e082018190529181018290526101208101610ed56000546001600160a01b031690565b6001600160a01b03908116825242602090920191909152600f54604051634418b22b60e11b8152929350600092911690638831645690610f19908590600401611f16565b6080604051808303816000875af1158015610f38573d6000803e3d6000fd5b505050506040513d601f19601f82011682018060405250810190610f5c9190611fda565b50505090507f2ee24ba429b8a15ab125915df6d996b76e2394200e6db520a8fde89ded7ec0f681604051610f9291815260200190565b60405180910390a15050505050505050610fab60018055565b505050565b6002805461041f90611e3e565b600954610100900460ff166110075760405162461bcd60e51b815260206004820152601060248201526f14985a5cd9481b9bdd0819985a5b195960821b60448201526064016104ff565b3360009081526012602052604090205460ff161561105f5760405162461bcd60e51b8152602060048201526015602482015274119d5b991cc8185b1c9958591e4818db185a5b5959605a1b60448201526064016104ff565b336000818152601260209081526040808320805460ff1916600117905560108252918290205491518281529192917fa65a8b4f7f65a1063243d7f7e9e4da00ff767599acf21549ef2548a45d1695ae910160405180910390a2600c546110cf906001600160a01b03163383611744565b50565b6110da61171a565b600d5460405163060b0b0f60e41b8152600481018390523360248201526000916001600160a01b0316906360b0b0f0906044016020604051808303816000875af115801561112c573d6000803e3d6000fd5b505050506040513d601f19601f820116820180604052508101906111509190611e78565b33600090815260106020526040812080549293508492909190611174908490611ea7565b90915550503360009081526011602052604081208054839290611198908490611ea7565b9250508190555081600760008282546111b19190611ea7565b9250508190555080600860008282546111ca9190611ea7565b9091555050600c546111e7906001600160a01b0316333085611883565b60405182815233907f4d154d4aae216bed6d0926db77c00df2b57c6b5ba4eee05775de20facede3a7b9060200160405180910390a2506110cf60018055565b6000806000600d60009054906101000a90046001600160a01b03166001600160a01b0316637b1b1de66040518163ffffffff1660e01b8152600401602060405180830381865afa15801561127e573d6000803e3d6000fd5b505050506040513d601f19601f820116820180604052508101906112a29190611e78565b9050600081116112c45760405162461bcd60e51b81526004016104ff90611ecd565b806112d785670de0b6b3a764000061202d565b6112e19190612044565b9492505050565b7ff0c57e16840df040f15088dc2f81fe391c3923bec73e23a9662efc9c229c6a008054600160401b810460ff16159067ffffffffffffffff1660008115801561132e5750825b905060008267ffffffffffffffff16600114801561134b5750303b155b905081158015611359575080155b156113775760405163f92ee8a960e01b815260040160405180910390fd5b845467ffffffffffffffff1916600117855583156113a157845460ff60401b1916600160401b1785555b6001600160a01b038f166114015760405162461bcd60e51b815260206004820152602160248201527f53616c6520746f6b656e20616464726573732063616e6e6f74206265207a65726044820152606f60f81b60648201526084016104ff565b6001600160a01b038e166114625760405162461bcd60e51b815260206004820152602260248201527f526169736520746f6b656e20616464726573732063616e6e6f74206265207a65604482015261726f60f01b60648201526084016104ff565b6001600160a01b0387166114c85760405162461bcd60e51b815260206004820152602760248201527f506f736974696f6e206d616e6167657220616464726573732063616e6e6f74206044820152666265207a65726f60c81b60648201526084016104ff565b6001600160a01b038a1661151e5760405162461bcd60e51b815260206004820152601f60248201527f43616d706169676e20616464726573732063616e6e6f74206265207a65726f0060448201526064016104ff565b87158061153357506001600160a01b03861615155b61159c5760405162461bcd60e51b815260206004820152603460248201527f56657374696e6720616464726573732063616e6e6f74206265207a65726f206960448201527319881d995cdd1a5b99c81a5cc8195b98589b195960621b60648201526084016104ff565b8e600b60016101000a8154816001600160a01b0302191690836001600160a01b031602179055508d600c60006101000a8154816001600160a01b0302191690836001600160a01b031602179055508c600290816115f991906120b6565b5060036116068d826120b6565b5060046116138c826120b6565b50600d80546001600160a01b03808d166001600160a01b031992831617909255600f80548a841690831617905560068a905560058b9055600e80549289169290911691909117905583156116a157845460ff60401b19168555604051600181527fc7f505b2f371ae2175ee4913f4499e1f2633a7b5936321eed1cdaeb6115181d29060200160405180910390a15b505050505050505050505050505050565b6116ba6116ed565b6001600160a01b0381166116e457604051631e4fbdf760e01b8152600060048201526024016104ff565b6110cf816117a3565b6000546001600160a01b031633146106565760405163118cdaa760e01b81523360048201526024016104ff565b60026001540361173d57604051633ee5aeb560e01b815260040160405180910390fd5b6002600155565b6040516001600160a01b03838116602483015260448201839052610fab91859182169063a9059cbb906064015b604051602081830303815290604052915060e01b6020820180516001600160e01b0383818316178352505050506118bc565b600080546001600160a01b038381166001600160a01b0319831681178455604051919092169283917f8be0079c531659141344cd1fd0a4f28419497f9722a3daafe3b4186f6b6457e09190a35050565b604051636eb1769f60e11b81523060048201526001600160a01b0383811660248301526000919085169063dd62ed3e90604401602060405180830381865afa158015611843573d6000803e3d6000fd5b505050506040513d601f19601f820116820180604052508101906118679190611e78565b905061187d84846118788585611ea7565b61191f565b50505050565b6040516001600160a01b03848116602483015283811660448301526064820183905261187d9186918216906323b872dd90608401611771565b60006118d16001600160a01b038416836119af565b905080516000141580156118f65750808060200190518101906118f49190612176565b155b15610fab57604051635274afe760e01b81526001600160a01b03841660048201526024016104ff565b604080516001600160a01b038416602482015260448082018490528251808303909101815260649091019091526020810180516001600160e01b031663095ea7b360e01b17905261197084826119c6565b61187d576040516001600160a01b038481166024830152600060448301526119a591869182169063095ea7b390606401611771565b61187d84826118bc565b60606119bd83836000611a6e565b90505b92915050565b6000806000846001600160a01b0316846040516119e39190612198565b6000604051808303816000865af19150503d8060008114611a20576040519150601f19603f3d011682016040523d82523d6000602084013e611a25565b606091505b5091509150818015611a4f575080511580611a4f575080806020019051810190611a4f9190612176565b8015611a6557506000856001600160a01b03163b115b95945050505050565b606081471015611a9a5760405163cf47918160e01b8152476004820152602481018390526044016104ff565b600080856001600160a01b03168486604051611ab69190612198565b60006040518083038185875af1925050503d8060008114611af3576040519150601f19603f3d011682016040523d82523d6000602084013e611af8565b606091505b5091509150611b08868383611b14565b925050505b9392505050565b606082611b2957611b2482611b70565b611b0d565b8151158015611b4057506001600160a01b0384163b155b15611b6957604051639996b31560e01b81526001600160a01b03851660048201526024016104ff565b5080611b0d565b805115611b805780518082602001fd5b60405163d6bda27560e01b815260040160405180910390fd5b60005b83811015611bb4578181015183820152602001611b9c565b50506000910152565b6020815260008251806020840152611bdc816040850160208701611b99565b601f01601f19169190910160400192915050565b6001600160a01b03811681146110cf57600080fd5b8035611c1081611bf0565b919050565b600060208284031215611c2757600080fd5b8135611b0d81611bf0565b8035600281900b8114611c1057600080fd5b600080600060608486031215611c5957600080fd5b833562ffffff81168114611c6c57600080fd5b9250611c7a60208501611c32565b9150611c8860408501611c32565b90509250925092565b600060208284031215611ca357600080fd5b5035919050565b634e487b7160e01b600052604160045260246000fd5b600082601f830112611cd157600080fd5b813567ffffffffffffffff80821115611cec57611cec611caa565b604051601f8301601f19908116603f01168101908282118183101715611d1457611d14611caa565b81604052838152866020858801011115611d2d57600080fd5b836020870160208301376000602085830101528094505050505092915050565b6000806000806000806000806000806101408b8d031215611d6d57600080fd5b611d768b611c05565b9950611d8460208c01611c05565b985060408b013567ffffffffffffffff80821115611da157600080fd5b611dad8e838f01611cc0565b995060608d0135915080821115611dc357600080fd5b611dcf8e838f01611cc0565b985060808d0135915080821115611de557600080fd5b50611df28d828e01611cc0565b965050611e0160a08c01611c05565b945060c08b0135935060e08b01359250611e1e6101008c01611c05565b9150611e2d6101208c01611c05565b90509295989b9194979a5092959850565b600181811c90821680611e5257607f821691505b602082108103611e7257634e487b7160e01b600052602260045260246000fd5b50919050565b600060208284031215611e8a57600080fd5b5051919050565b634e487b7160e01b600052601160045260246000fd5b808201808211156119c0576119c0611e91565b818103818111156119c0576119c0611e91565b60208082526029908201527f50726963652070657220746f6b656e206d7573742062652067726561746572206040820152687468616e207a65726f60b81b606082015260800190565b81516001600160a01b0316815261016081016020830151611f4260208401826001600160a01b03169052565b506040830151611f59604084018262ffffff169052565b506060830151611f6e606084018260020b9052565b506080830151611f83608084018260020b9052565b5060a083015160a083015260c083015160c083015260e083015160e083015261010080840151818401525061012080840151611fc9828501826001600160a01b03169052565b505061014092830151919092015290565b60008060008060808587031215611ff057600080fd5b8451935060208501516fffffffffffffffffffffffffffffffff8116811461201757600080fd5b6040860151606090960151949790965092505050565b80820281158282048414176119c0576119c0611e91565b60008261206157634e487b7160e01b600052601260045260246000fd5b500490565b601f821115610fab576000816000526020600020601f850160051c8101602086101561208f5750805b601f850160051c820191505b818110156120ae5782815560010161209b565b505050505050565b815167ffffffffffffffff8111156120d0576120d0611caa565b6120e4816120de8454611e3e565b84612066565b602080601f83116001811461211957600084156121015750858301515b600019600386901b1c1916600185901b1785556120ae565b600085815260208120601f198616915b8281101561214857888601518255948401946001909101908401612129565b50858210156121665787850151600019600388901b60f8161c191681555b5050505050600190811b01905550565b60006020828403121561218857600080fd5b81518015158114611b0d57600080fd5b600082516121aa818460208701611b99565b919091019291505056fea26469706673582212203bdc1cfa83dbc3ba7e209e799e891ca5c168a918191fb54e3aaca9b282eeff0d64736f6c63430008180033","linkReferences":{}},"methodIdentifiers":{"campaign()":"811e539c","claimFunds()":"ac307773","claimTokens()":"48c54b9d","claimed(address)":"c884ef83","contribute(uint256)":"c1cbbca7","contributions(address)":"42e94c90","description()":"7284e416","failed()":"ba414fa6","finalize()":"4bb278f3","finalized()":"b3f05b97","finalizedTimestamp()":"9b13e8e9","getRequiredAmountsForLiquidity(uint256)":"df7dbd79","initSwapPair(uint24,int24,int24)":"9491aa1f","initialize(address,address,string,string,string,address,uint256,uint256,address,address)":"f05966de","owner()":"8da5cb5b","positionManager()":"791b98bc","projectName()":"9a33e300","purchasedTokens(address)":"4bae6f3f","raiseToken()":"4da60aa5","raisedAmount()":"c59ee1dc","renounceOwnership()":"715018a6","saleToken()":"e985e367","setFailed()":"146901db","soldAmount()":"fa1a5f59","swapPairCreated()":"a5e14dac","transferOwnership(address)":"f2fde38b","vesting()":"44c63eec","vestingDuration()":"1514617e","vestingStartDelta()":"e77d1a1f","websiteLink()":"079219d5"},"id":42}