{"abi":[{"type":"function","name":"createCampaign","inputs":[{"name":"owner","type":"address","internalType":"address"},{"name":"data","type":"bytes","internalType":"bytes"}],"outputs":[{"name":"","type":"address","internalType":"contract ICampaign"}],"stateMutability":"nonpayable"}],"bytecode":{"object":"0x608060405234801561001057600080fd5b50610957806100206000396000f3fe608060405234801561001057600080fd5b506004361061002b5760003560e01c806349d7788d14610030575b600080fd5b61004361003e3660046100c1565b61005f565b6040516001600160a01b03909116815260200160405180910390f35b6000828260405161006f9061009e565b61007a929190610191565b604051809103906000f080158015610096573d6000803e3d6000fd5b509392505050565b610731806101f183390190565b634e487b7160e01b600052604160045260246000fd5b600080604083850312156100d457600080fd5b82356001600160a01b03811681146100eb57600080fd5b9150602083013567ffffffffffffffff8082111561010857600080fd5b818501915085601f83011261011c57600080fd5b81358181111561012e5761012e6100ab565b604051601f8201601f19908116603f01168101908382118183101715610156576101566100ab565b8160405282815288602084870101111561016f57600080fd5b8260208601602083013760006020848301015280955050505050509250929050565b60018060a01b03831681526000602060406020840152835180604085015260005b818110156101ce578581018301518582016060015282016101b2565b506000606082860101526060601f19601f83011685010192505050939250505056fe60c060405234801561001057600080fd5b5060405161073138038061073183398101604081905261002f916100f0565b816001600160a01b03811661005e57604051631e4fbdf760e01b81526000600482015260240160405180910390fd5b6100678161008a565b508080602001905181019061007c91906101d9565b60a052608052506101fd9050565b600080546001600160a01b038381166001600160a01b0319831681178455604051919092169283917f8be0079c531659141344cd1fd0a4f28419497f9722a3daafe3b4186f6b6457e09190a35050565b634e487b7160e01b600052604160045260246000fd5b6000806040838503121561010357600080fd5b82516001600160a01b038116811461011a57600080fd5b602084810151919350906001600160401b038082111561013957600080fd5b818601915086601f83011261014d57600080fd5b81518181111561015f5761015f6100da565b604051601f8201601f19908116603f01168101908382118183101715610187576101876100da565b81604052828152898684870101111561019f57600080fd5b600093505b828410156101c157848401860151818501870152928501926101a4565b60008684830101528096505050505050509250929050565b600080604083850312156101ec57600080fd5b505080516020909101519092909150565b60805160a0516105016102306000396000818161017c015281816101a50152610239015260006101f801526105016000f3fe608060405234801561001057600080fd5b50600436106100b45760003560e01c80638da5cb5b116100715780638da5cb5b146101c7578063a8d31c78146101e2578063c59ee1dc146101ea578063d54dff2d146101e2578063d669e1d4146101f3578063f2fde38b1461021a57600080fd5b80630c611f24146100b95780635d491abb1461014057806360b0b0f01461014f578063715018a6146101705780637b1b1de61461017a578063833b9499146101a0575b600080fd5b604080518082018252600e81526d0a6e8cac2d8e8d04098c2eadcc6d60931b60208083019190915282518084018452601781527f537465616c7468204c61756e63682043616d706169676e000000000000000000818301528351808501855260038152624e2f4160e81b9281019290925292516101379391906103b6565b60405180910390f35b60405160018152602001610137565b61016261015d366004610415565b61022d565b604051908152602001610137565b610178610294565b005b7f0000000000000000000000000000000000000000000000000000000000000000610162565b6101627f000000000000000000000000000000000000000000000000000000000000000081565b6000546040516001600160a01b039091168152602001610137565b6101786102a8565b61016260015481565b6101627f000000000000000000000000000000000000000000000000000000000000000081565b610178610228366004610441565b6102b0565b60006102376102f3565b7f000000000000000000000000000000000000000000000000000000000000000061026a84670de0b6b3a7640000610479565b6102749190610496565b9050826001600082825461028891906104b8565b90915550909392505050565b61029c6102f3565b6102a66000610320565b565b6102a66102f3565b6102b86102f3565b6001600160a01b0381166102e757604051631e4fbdf760e01b8152600060048201526024015b60405180910390fd5b6102f081610320565b50565b6000546001600160a01b031633146102a65760405163118cdaa760e01b81523360048201526024016102de565b600080546001600160a01b038381166001600160a01b0319831681178455604051919092169283917f8be0079c531659141344cd1fd0a4f28419497f9722a3daafe3b4186f6b6457e09190a35050565b6000815180845260005b818110156103965760208185018101518683018201520161037a565b506000602082860101526020601f19601f83011685010191505092915050565b6060815260006103c96060830186610370565b82810360208401526103db8186610370565b905082810360408401526103ef8185610370565b9695505050505050565b80356001600160a01b038116811461041057600080fd5b919050565b6000806040838503121561042857600080fd5b82359150610438602084016103f9565b90509250929050565b60006020828403121561045357600080fd5b61045c826103f9565b9392505050565b634e487b7160e01b600052601160045260246000fd5b808202811582820484141761049057610490610463565b92915050565b6000826104b357634e487b7160e01b600052601260045260246000fd5b500490565b808201808211156104905761049061046356fea2646970667358221220835a5e50a010a116d7e6233eb224bd90f5a1860ecf5af60f229cdaea3f74ea4064736f6c63430008180033a2646970667358221220073d715dbd5012eeda1e765479fc456c89f3bed0852246e74eefe5fd0ed5b1ec64736f6c63430008180033","linkReferences":{}},"methodIdentifiers":{"createCampaign(address,bytes)":"49d7788d"},"id":45}