{"abi":[{"type":"constructor","inputs":[{"name":"owner_","type":"address","internalType":"address"},{"name":"data","type":"bytes","internalType":"bytes"}],"stateMutability":"nonpayable"},{"type":"function","name":"END_TIME","inputs":[],"outputs":[{"name":"","type":"uint256","internalType":"uint256"}],"stateMutability":"view"},{"type":"function","name":"MINIMUM_GOAL","inputs":[],"outputs":[{"name":"","type":"uint256","internalType":"uint256"}],"stateMutability":"view"},{"type":"function","name":"PRICE_PER_TOKEN","inputs":[],"outputs":[{"name":"","type":"uint256","internalType":"uint256"}],"stateMutability":"view"},{"type":"function","name":"contribute","inputs":[{"name":"contribution","type":"uint256","internalType":"uint256"},{"name":"","type":"address","internalType":"address"}],"outputs":[{"name":"tokens","type":"uint256","internalType":"uint256"}],"stateMutability":"nonpayable"},{"type":"function","name":"getCampaignDetails","inputs":[],"outputs":[{"name":"","type":"string","internalType":"string"},{"name":"","type":"string","internalType":"string"},{"name":"","type":"string","internalType":"string"}],"stateMutability":"pure"},{"type":"function","name":"handleFailure","inputs":[],"outputs":[],"stateMutability":"view"},{"type":"function","name":"handleFinalization","inputs":[],"outputs":[],"stateMutability":"view"},{"type":"function","name":"isCampaignSuccessful","inputs":[],"outputs":[{"name":"","type":"bool","internalType":"bool"}],"stateMutability":"view"},{"type":"function","name":"owner","inputs":[],"outputs":[{"name":"","type":"address","internalType":"address"}],"stateMutability":"view"},{"type":"function","name":"pricePerToken","inputs":[],"outputs":[{"name":"","type":"uint256","internalType":"uint256"}],"stateMutability":"view"},{"type":"function","name":"raisedAmount","inputs":[],"outputs":[{"name":"","type":"uint256","internalType":"uint256"}],"stateMutability":"view"},{"type":"function","name":"renounceOwnership","inputs":[],"outputs":[],"stateMutability":"nonpayable"},{"type":"function","name":"transferOwnership","inputs":[{"name":"newOwner","type":"address","internalType":"address"}],"outputs":[],"stateMutability":"nonpayable"},{"type":"event","name":"OwnershipTransferred","inputs":[{"name":"previousOwner","type":"address","indexed":true,"internalType":"address"},{"name":"newOwner","type":"address","indexed":true,"internalType":"address"}],"anonymous":false},{"type":"error","name":"OwnableInvalidOwner","inputs":[{"name":"owner","type":"address","internalType":"address"}]},{"type":"error","name":"OwnableUnauthorizedAccount","inputs":[{"name":"account","type":"address","internalType":"address"}]}],"bytecode":{"object":"0x60e060405234801561001057600080fd5b506040516109be3803806109be83398101604081905261002f916100f3565b816001600160a01b03811661005e57604051631e4fbdf760e01b81526000600482015260240160405180910390fd5b6100678161008d565b508080602001905181019061007c91906101dc565b60c05260a0526080525061020a9050565b600080546001600160a01b038381166001600160a01b0319831681178455604051919092169283917f8be0079c531659141344cd1fd0a4f28419497f9722a3daafe3b4186f6b6457e09190a35050565b634e487b7160e01b600052604160045260246000fd5b6000806040838503121561010657600080fd5b82516001600160a01b038116811461011d57600080fd5b602084810151919350906001600160401b038082111561013c57600080fd5b818601915086601f83011261015057600080fd5b815181811115610162576101626100dd565b604051601f8201601f19908116603f0116810190838211818310171561018a5761018a6100dd565b8160405282815289868487010111156101a257600080fd5b600093505b828410156101c457848401860151818501870152928501926101a7565b60008684830101528096505050505050509250929050565b6000806000606084860312156101f157600080fd5b8351925060208401519150604084015190509250925092565b60805160a05160c05161074d610271600039600081816101bb015281816101e401526102d901526000818161023f015281816102a3015281816103c2015261049a0152600081816101540152818161027801528181610352015261042e015261074d6000f3fe608060405234801561001057600080fd5b50600436106100cf5760003560e01c8063833b94991161008c578063c59ee1dc11610066578063c59ee1dc14610229578063d54dff2d14610232578063e518a4711461023a578063f2fde38b1461026157600080fd5b8063833b9499146101df5780638da5cb5b14610206578063a8d31c781461022157600080fd5b80630c611f24146100d457806337ba682d1461014f5780635d491abb1461018457806360b0b0f01461019c578063715018a6146101af5780637b1b1de6146101b9575b600080fd5b604080518082018252600b81526a08cc2d2e44098c2eadcc6d60ab1b6020808301919091528251808401845260148152732330b4b9102630bab731b41021b0b6b830b4b3b760611b818301528351808501855260038152624e2f4160e81b928101929092529251610146939190610602565b60405180910390f35b6101767f000000000000000000000000000000000000000000000000000000000000000081565b604051908152602001610146565b61018c610274565b6040519015158152602001610146565b6101766101aa366004610661565b6102cd565b6101b7610334565b005b7f0000000000000000000000000000000000000000000000000000000000000000610176565b6101767f000000000000000000000000000000000000000000000000000000000000000081565b6000546040516001600160a01b039091168152602001610146565b6101b7610348565b61017660015481565b6101b7610424565b6101767f000000000000000000000000000000000000000000000000000000000000000081565b6101b761026f36600461068d565b610501565b60007f000000000000000000000000000000000000000000000000000000000000000042101580156102c857507f000000000000000000000000000000000000000000000000000000000000000060015410155b905090565b60006102d761053f565b7f000000000000000000000000000000000000000000000000000000000000000061030a84670de0b6b3a76400006106c5565b61031491906106e2565b905082600160008282546103289190610704565b90915550909392505050565b61033c61053f565b610346600061056c565b565b61035061053f565b7f000000000000000000000000000000000000000000000000000000000000000042116103c05760405162461bcd60e51b815260206004820152601960248201527846756e6472616973696e67207374696c6c206f6e676f696e6760381b60448201526064015b60405180910390fd5b7f0000000000000000000000000000000000000000000000000000000000000000600154106103465760405162461bcd60e51b815260206004820152601060248201526f135a5b9a5b5d5b4819dbd85b081b595d60821b60448201526064016103b7565b61042c61053f565b7f00000000000000000000000000000000000000000000000000000000000000004210156104985760405162461bcd60e51b815260206004820152601960248201527846756e6472616973696e67207374696c6c206f6e676f696e6760381b60448201526064016103b7565b7f000000000000000000000000000000000000000000000000000000000000000060015410156103465760405162461bcd60e51b8152602060048201526014602482015273135a5b9a5b5d5b4819dbd85b081b9bdd081b595d60621b60448201526064016103b7565b61050961053f565b6001600160a01b03811661053357604051631e4fbdf760e01b8152600060048201526024016103b7565b61053c8161056c565b50565b6000546001600160a01b031633146103465760405163118cdaa760e01b81523360048201526024016103b7565b600080546001600160a01b038381166001600160a01b0319831681178455604051919092169283917f8be0079c531659141344cd1fd0a4f28419497f9722a3daafe3b4186f6b6457e09190a35050565b6000815180845260005b818110156105e2576020818501810151868301820152016105c6565b506000602082860101526020601f19601f83011685010191505092915050565b60608152600061061560608301866105bc565b828103602084015261062781866105bc565b9050828103604084015261063b81856105bc565b9695505050505050565b80356001600160a01b038116811461065c57600080fd5b919050565b6000806040838503121561067457600080fd5b8235915061068460208401610645565b90509250929050565b60006020828403121561069f57600080fd5b6106a882610645565b9392505050565b634e487b7160e01b600052601160045260246000fd5b80820281158282048414176106dc576106dc6106af565b92915050565b6000826106ff57634e487b7160e01b600052601260045260246000fd5b500490565b808201808211156106dc576106dc6106af56fea2646970667358221220b420ba3fd24e903dee6f7781077b655a961bd5bc0deb3a96e2b8e0d6280175b164736f6c63430008180033","linkReferences":{}},"methodIdentifiers":{"END_TIME()":"37ba682d","MINIMUM_GOAL()":"e518a471","PRICE_PER_TOKEN()":"833b9499","contribute(uint256,address)":"60b0b0f0","getCampaignDetails()":"0c611f24","handleFailure()":"a8d31c78","handleFinalization()":"d54dff2d","isCampaignSuccessful()":"5d491abb","owner()":"8da5cb5b","pricePerToken()":"7b1b1de6","raisedAmount()":"c59ee1dc","renounceOwnership()":"715018a6","transferOwnership(address)":"f2fde38b"},"id":40}